:100000000C94EC000C9414010C9414010C94140145
:100010000C9414010C9414010C9414010C9414010C
:100020000C9414010C9414010C9414010C941401FC
:100030000C9414010C9414010C9414010C941401EC
:100040000C94030D0C9414010C94730D0C944D0D31
:100050000C9414010C9414010C9414010C941401CC
:100060000C94A50D0C941401084AD73B3BCE016EAD
:1000700084BCBFFDC12F3D6C74319ABD56833DDAFF
:100080003D00C77F11BED9E4BB4C3E916BAAAABE0E
:10009000000000803F0000407A10F35A00A0724E2A
:1000A00018090010A5D4E80000E87648170000E41D
:1000B0000B54020000CA9A3B000000E1F505000065
:1000C00080969800000040420F000000A0860100CA
:1000D0000000102700000000E8030000000064009A
:1000E000000000000A000000000001000000000005
:1000F0002C76D888DC674F0823DFC1DFAE59E1B129
:10010000B796E5E3E453C63AE651997696E8E6C237
:100110008426EB898C9B62ED407C6FFCEFBC9C9F3E
:1001200040F2BAA56FA5F490055A2AF75C936B6C60
:10013000F9676DC11BFCE0E40D47FEF520E6B50054
:10014000D0ED902E0300943577050080841E0800C2
:1001500000204E0A000000C80C333333330F986E72
:1001600012831141EF8D2114893BE65516CFFEE62F
:10017000DB18D1844B381BF77C1D901DA4BBE424F5
:10018000203284725E228100C9F124ECA1E53D2772
:1001900000000000250028002B00040404040404CF
:1001A0000404020202020202030303030303010226
:1001B00004081020408001020408102001020408F5
:1001C00010200000000800020100000304070000E6
:1001D000000000000000C00E11241FBECFEFD8E0C9
:1001E000DEBFCDBF11E0A0E0B1E0E8E1F7E302C07F
:1001F00005900D92A033B107D9F722E0A0E3B1E05A
:1002000001C01D92AD3EB207E1F710E0CCEED0E0A8
:1002100004C02197FE010E949219CB3ED107C9F775
:100220000E942F0F0C948A1B0C94000090E0FC019C
:10023000EE53FE4F2491FC01E255FE4F3491FC0138
:10024000E656FE4FE491EE23C9F0222339F0233025
:1002500001F1A8F4213019F1223029F1F0E0EE0F7C
:10026000FF1FE057FE4FA591B4918FB7F894EC9122
:10027000611126C030953E233C938FBF08952730EF
:10028000A9F02830C9F0243049F7809180008F7D93
:1002900003C0809180008F7780938000DFCF84B58A
:1002A0008F7784BDDBCF84B58F7DFBCF8091B0008D
:1002B0008F778093B000D2CF8091B0008F7DF9CF3F
:1002C0003E2BDACF3FB7F894809191019091920143
:1002D000A0919301B091940126B5A89B05C02F3F32
:1002E00019F00196A11DB11D3FBFBA2FA92F982F5C
:1002F0008827BC01CD01620F711D811D911D42E057
:10030000660F771F881F991F4A95D1F708958F921E
:100310009F92AF92BF92CF92DF92EF92FF924B01EA
:100320005C010E9462016B017C010E9462016C19F8
:100330007D098E099F09683E734081059105A8F3E8
:1003400021E0821A9108A108B10888EEC80E83E066
:10035000D81EE11CF11C81149104A104B10429F7F9
:10036000FF90EF90DF90CF90BF90AF909F908F90D5
:1003700008952FB7F89460918D0170918E0180914E
:100380008F01909190012FBF0895AF92BF92CF92AD
:10039000DF92EF92FF920F931F93CF93DF936C0145
:1003A0007B018B01040F151FEB015E01AE18BF0826
:1003B000C017D10759F06991D601ED91FC910190D8
:1003C000F081E02DC6010995892B79F7C501DF91F0
:1003D000CF911F910F91FF90EF90DF90CF90BF9042
:1003E000AF900895FC01538D448D252F30E0842F6C
:1003F00090E0821B930B541710F0CF96089501974D
:100400000895FC01918D828D981761F0A28DAE0F39
:10041000BF2FB11D5D968C91928D9F5F9F73928FC0
:1004200090E008958FEF9FEF0895FC01918D828DEC
:10043000981731F0828DE80FF11D858D90E00895B9
:100440008FEF9FEF0895FC01918D228D892F90E011
:10045000805C9F4F821B91098F739927089587E0D5
:1004600092E00E94230221E0892B09F420E0822FF0
:10047000089580E090E0892B29F00E942F028111DD
:100480000C9400000895FC01A48DA80FB92FB11D94
:10049000A35ABF4F2C91848D90E001968F739927BA
:1004A000848FA689B7892C93A089B1898C91837098
:1004B00080648C93938D848D981306C00288F38991
:1004C000E02D80818F7D80830895EF92FF920F93BE
:1004D0001F93CF93DF93EC0181E0888F9B8D8C8DF0
:1004E00098131AC0E889F989808185FF15C09FB7E4
:1004F000F894EE89FF896083E889F98980818370A7
:10050000806480839FBF81E090E0DF91CF911F9155
:100510000F91FF90EF900895F62E0B8D10E00F5F76
:100520001F4F0F731127E02E8C8D8E110CC00FB64C
:1005300007FCFACFE889F989808185FFF5CFCE01E4
:100540000E944302F1CFEB8DEC0FFD2FF11DE35A1A
:10055000FF4FF0829FB7F8940B8FEA89FB89808167
:100560008062CFCFCF93DF93EC01888D8823B9F0E1
:10057000AA89BB89E889F9898C9185FD03C08081AE
:1005800086FD0DC00FB607FCF7CF8C9185FFF2CF2B
:10059000808185FFEDCFCE010E944302E9CFDF913C
:1005A000CF9108951F93CF93DF93C1E0C0933001A3
:1005B000882399F1D091B8001091BA008091BC00C5
:1005C0008A7B8093BC0060E082E10E94160160E0BB
:1005D00083E10E94160110920102C093E001109283
:1005E000DB0161E082E10E94160161E083E10E948B
:1005F00016018091B9008E7F8093B9008091B90077
:100600008D7F8093B90088E48093B80085E480935F
:10061000BC001093BA00D093B800DF91CF911F9126
:100620000895CF92DF92EF92FF920F931F93CF9393
:10063000DF93D82FC62F613208F098C00E94620164
:100640006B017C018091010281116BC081E080937C
:1006500001028093E0019FEF9093DF011092DE0191
:100660009C0F9093DD018093DC018091DC01DD0F14
:10067000D82BD093DC018091DB01813009F078C068
:100680001092DB010E9462016B017C018091DC0110
:100690008093BB008091030290910402A091050217
:1006A000B0910602892B8A2B8B2BA1F00E9462014C
:1006B000009103021091040220910502309106027C
:1006C0006C197D098E099F09061717072807390736
:1006D00008F448C08091BC0083FDD8CF85EC80939E
:1006E000BC000E9462016B017C018091010281309B
:1006F00009F440C08091DE018C1710F4C091DE0136
:10070000EBEBF1E0A1EEB1E080E08C1355C08C2F53
:10071000DF91CF911F910F91FF90EF90DF90CF90DD
:1007200008958091030290910402A0910502B09176
:100730000602892B8A2B8B2B09F484CF0E9462013D
:1007400000910302109104022091050230910602EB
:100750006C197D098E099F090617170728073907A5
:1007600008F070CF809102020E94D202C0E0CFCF89
:1007700085EEB5CF8091030290910402A09105020D
:10078000B0910602892B8A2B8B2B09F4AECF0E94E5
:100790006201009103021091040220910502309140
:1007A00006026C197D098E099F090617170728078D
:1007B000390708F09ACFD6CF91919D938F5FA5CF3F
:1007C0008F929F92AF92BF92CF92DF92EF92FF9261
:1007D0000F931F93CF93DF93D091BA01D13208F0DA
:1007E000D7C0182FC091B9010E9462016B017C0132
:1007F0008091010281116BC082E08093010210930D
:10080000E0018FEF8093DF011092DE01D093DD01D4
:10081000A9E9B1E0EBEBF1E080E0D81391C01092D0
:10082000DC018091DC01CC0FC82BC093DC018091EE
:10083000DB01813009F088C01092DB010E94620167
:100840006B017C018091DC018093BB0080910302ED
:1008500090910402A0910502B0910602892B8A2B87
:100860008B2BA1F00E9462010091030210910402FF
:1008700020910502309106026C197D098E099F09AD
:10088000061717072807390708F442C08091BC00F3
:1008900083FDD8CF85EC8093BC000E9462016B0180
:1008A0007C0180910102823009F450C08091DF0107
:1008B0008F3F09F46FC08091DF01803209F46CC072
:1008C0008091DF01803309F469C084E026C0809103
:1008D000030290910402A0910502B0910602892BB7
:1008E0008A2B8B2B09F484CF0E9462018090030233
:1008F00090900402A0900502B09006026C197D0948
:100900008E099F0986169706A806B90608F070CFCB
:10091000809102020E94D20285E01092980110920A
:10092000BA0110929701DF91CF911F910F91FF9023
:10093000EF90DF90CF90BF90AF909F908F900895F1
:100940009D9191938F5F69CF85EEA5CF8091030232
:1009500090910402A0910502B0910602892B8A2B86
:100960008B2B09F49ECF0E9462010091030210912B
:10097000040220910502309106026C197D098E094E
:100980009F09061717072807390708F08ACFC0CF35
:1009900081E0C3CF80E0C1CF82E0BFCF83E0BDCF95
:1009A0000F931F93CF93DF938A01E901209711F4EE
:1009B000C4EAD2E091E0909397018093B90110923C
:1009C00098011092BA01E881F9810190F081E02D3F
:1009D000CE010995D80111966C91E881F9810190B9
:1009E000F081E02DCE010995E881F9810190F08137
:1009F000E02DD8016C91CE01099581E00E94E003C1
:100A000091E0811190E0892FDF91CF911F910F919B
:100A100008950F931F93CF93DF938A01E9012097E5
:100A200011F4C4EAD2E091E0909397018093B90168
:100A3000109298011092BA01E881F9810190F08139
:100A4000E02DCE010995E881F9810190F081E02D3A
:100A5000D8016C91CE01099581E00E94E00391E0FC
:100A6000811190E0892FDF91CF911F910F9108950F
:100A700020915101260F3327331F21323105ECF429
:100A800020910102FC0190E080E0243069F082E0D6
:100A90000895A09151012191AC014F5C5E4FA40FCC
:100AA000B52FB11D2C930196861798F380915101B3
:100AB000680F6093510180E0089581E008950895E2
:100AC000E091960180919501E81730F4F0E0EF5144
:100AD000FE4F808190E008958FEF9FEF08959091F1
:100AE0009601809195012FEF3FEF981748F4E92F79
:100AF000F0E0EF51FE4F208130E09F5F9093960130
:100B0000C90108958091950190919601891B990BD7
:100B10000895CF92DF92EF92FF920F931F93CF939E
:100B2000DF937C01CB018A0120919701222389F078
:100B3000EB016B01C40ED51ECC15DD0569F0699182
:100B4000D701ED91FC910190F081E02DC70109954D
:100B5000F3CF642F0E943805C801DF91CF911F9118
:100B60000F91FF90EF90DF90CF900895CF93DF9398
:100B70001F92CDB7DEB76983209197012223F9F048
:100B80002091BA01203258F021E030E0FC0133839B
:100B9000228390E080E00F90DF91CF9108958091C3
:100BA0009801E82FF0E0E756FE4F998190838F5F20
:100BB000809398018093BA0181E090E0ECCF61E0EE
:100BC000CE0101960E943805F7CF90E080E00895AD
:100BD0002F923F924F925F926F927F928F929F924D
:100BE000AF92BF92CF92DF92EF92FF920F931F933B
:100BF000CF93DF93CDB7DEB728970FB6F894DEBF5B
:100C00000FBECDBF8A836C83442E3E832D83F8862E
:100C1000EF820E94B9016B017C018F819885892B3D
:100C200021F4A4EAB2E0B887AF83242C312CB42D90
:100C3000B195BB834982712C612C512C4801B12C98
:100C4000A12C621473040CF055C081E080939701CD
:100C50009A819093B901109298011092BA01AF81D4
:100C6000B885ED91FC9111970190F081E02D6C8198
:100C7000CD01099581E00E94E0036981613208F0AD
:100C800060E28A810E94110310929601809395017F
:100C9000AF81B885ED91FC9111970084F185E02D2D
:100CA000CD010995892BF9F00115110589F4AF8162
:100CB000B885ED91FC9111970284F385E02DCD016B
:100CC0000995ED81FE81E50DF11D80835394E0CF00
:100CD0000E94B9016C197D098E099F096815790573
:100CE0008A059B0520F3620C731CB9818B81B80FB8
:100CF000B983A7CF0115110589F00E94B9016C19BC
:100D00007D098E099F0930E020E060177107820796
:100D1000930720F0541410F455245A94852D2896E6
:100D20000FB6F894DEBF0FBECDBFDF91CF911F91FC
:100D30000F91FF90EF90DF90CF90BF90AF909F907A
:100D40008F907F906F905F904F903F902F9008957D
:100D50008F929F92AF92BF92CF92DF92EF92FF92CB
:100D60000F931F93CF93DF9300D0CDB7DEB7B82E8C
:100D7000A62E842E922E6801780108EE13E09E01C3
:100D80002E5F3F4F41E00E94E80521E030E001C0C6
:100D9000220F8A94EAF78A819920D1F0822B8A83E4
:100DA00089839601AE014F5F5F4F6A2D8B2D0E94A4
:100DB00009050F900F90DF91CF911F910F91FF9038
:100DC000EF90DF90CF90BF90AF909F908F9008955D
:100DD00020958223E4CF7F928F929F92AF92BF9211
:100DE000CF92DF92EF92FF920F931F93CF93DF93F7
:100DF00000D0CDB7DEB7A82E962E742E822EB02E40
:100E000008EE13E09E012E5F3F4F41E00E94E8058F
:100E10008823C1F1872D8819990BAC014F5F5F4F73
:100E200081E090E002C0880F991F8A94E2F7019751
:100E3000042E01C0880F0A94EAF72B2D01C0220F5F
:100E40004A95EAF7B82EB0949A81B92282238B2969
:100E50008A8389839701AE014F5F5F4F692D8A2D89
:100E60000E9409050F900F90DF91CF911F910F9174
:100E7000FF90EF90DF90CF90BF90AF909F908F90BA
:100E80007F90089580E0EECFEF92FF920F93E0EB1A
:100E9000F2E0E180F280082F22E044E06BE1808103
:100EA0000E94EB060F91FF90EF9008954F925F9292
:100EB0006F927F928F929F92AF92BF92CF92DF926A
:100EC000EF92FF920F931F93CF93DF936C01C0EBD0
:100ED000D2E0E980FA8008EE13E023EB32E046E04E
:100EE0006BE388810E94E8056B817C817627672708
:100EF0007627072E000C880B990B0E94FC1520E02A
:100F000030E040E05AE30E945B1625ED37EE4CE1FD
:100F100051E40E945B162B013C016D817E81762796
:100F200067277627072E000C880B990B0E94FC156B
:100F300020E030E040E05AE30E945B1625ED37EEFA
:100F40004CE151E40E945B164B015C016F81788596
:100F5000762767277627072E000C880B990B0E94AF
:100F6000FC1520E030E040E05AE30E945B1625EDDE
:100F700037EE4CE151E40E945B16F601408251824B
:100F80006282738284829582A682B782608771872B
:100F900082879387C601DF91CF911F910F91FF90B8
:100FA000EF90DF90CF90BF90AF909F908F907F9009
:100FB0006F905F904F9008953F924F925F926F9223
:100FC0007F928F929F92AF92BF92CF92DF92EF92D9
:100FD000FF920F931F93CF93DF93782E662E6A01B3
:100FE0007901E8010E94B9014B015C01209711F4DD
:100FF000C4EAD2E081E0809397017092B901109227
:1010000098011092BA01E881F9810190F081E02DF8
:10101000662DCE01099581E00E94E00362E0872DF4
:101020000E941103109296018093950101E010E057
:101030002701712C612C33243394E881F9810084D9
:10104000F185E02DCE010995892BE9F111113BC005
:10105000E114F104C9F4E881F9810284F385E02DFB
:1010600001110CC0CE010995F60120813181822B3E
:10107000932B9183808311E00325DFCFCE01099567
:10108000F60110828183F8CF0E94B90168197909AD
:101090008A099B096415750586059705E0F20E948B
:1010A000B901AB01BC01481959096A097B09C7019B
:1010B000B0E0A0E0481759076A077B0738F0111124
:1010C00005C01FEF03C0E114F10449F7812FDF9140
:1010D000CF911F910F91FF90EF90DF90CF90BF9035
:1010E000AF909F908F907F906F905F904F903F90C8
:1010F00008952F923F924F925F926F927F928F92BC
:101100009F92AF92BF92CF92DF92EF92FF920F9396
:101110001F93CF93DF93CDB7DEB7E7970FB6F89461
:10112000DEBF0FBECDBF8F8F48A759A76AA77BA789
:101130000CA71DA72EA73FA78B3309F05FC2E09035
:10114000B102F090B20208EE13E09E012F5F3F4F14
:1011500041E065E78091B0020E94E805882339F0FC
:1011600089818E7790E0959587958093B3028091E1
:10117000B302883308F4B4C297E79F8BA3E0AA8F29
:10118000E090B102F090B20208EE13E09E012F5FF2
:101190003F4F41E06CE18091B0020E94E805882356
:1011A00051F08981887190E023E0959587952A9583
:1011B000E1F78093B3028091B30220E030E479013B
:1011C00002C0F594E7948A95E2F76EE387E092E037
:1011D0000E946502CE010D969E8B8D8BDE011196CD
:1011E000B98FA88F6C01BF880091B1021091B20233
:1011F00028EE33E0AE014D5E5F4F6B2D8091B00263
:101200000E94DC078B889C88B401092C000C880B99
:10121000990B0E94FC15FF89F33109F4F7C121E015
:1012200082229924D6018D929C9220E030E040E009
:1012300051E40E945B16E88DF98D6083718382838F
:101240009383BA8DBB0EE2E0CE0ED11C288D398D72
:101250002C5F3F4F398F288F8D899E89281739073A
:1012600019F69F8D9B3309F0DFC18DEC9CECACE44B
:10127000BDE388AB99ABAAABBBABA2E3B0E0BFA325
:10128000AEA3C701B0E0A0E08CAB9DABAEABBFABF3
:101290001CA21BA2312C212CDE011196BC8FAB8F1E
:1012A000FE013D96F9A3E8A3FF89FAA32F8D2DA394
:1012B000812C912C54011E8E1D8E0091B102109133
:1012C000B20228EE33E0AE014D5E5F4F6DA180911A
:1012D000B0020E94DC076B897C89072E000C880B0A
:1012E000990B0E94FC156B017C013F8D3B3391F4FF
:1012F0008D8D9E8D029771F46CA97DA98EA99FA9F1
:101300000E94FA159B01AC01C701B6010E9450175B
:101310006B017C012601370177FA709477F870949D
:10132000C501B4010E94FA154B015C0120E030E0D8
:10133000A901C701B6010E94FE18181614F0730126
:101340006201A7019601C501B4010E9451170E94D4
:10135000A8184B015C012FE632E143E85AE3C301D0
:10136000B2010E945B162CA53DA54EA55FA50E946B
:101370005B16AB8DBC8D2D913D914D915C910E9482
:1013800051176B017C01EB8DFC8DC082D182E28212
:10139000F38228A539A54AA55BA5C301B2010E9425
:1013A0005B16A70196010E945117FF89F33109F4DA
:1013B00045C120E030E040E05EE30E945B166B0137
:1013C0007C0120E030E0A9010E94FE1820E030E01E
:1013D00040E05FE387FD2DC1C701B6010E945117B0
:1013E0000E94A1186E7FA8A1B9A18D919C91682B34
:1013F000792B7C8B6B8B2091B1023091B202AE01C4
:101400004D5E5F4F6AA18091B0020E94D004ED8DC5
:10141000FE8D3196FE8FED8FFDA1FE5FFDA32AA10B
:101420003A8D230F2AA388A199A1029699A388A394
:10143000AB8DBC8D1496BC8FAB8FED8DFE8D33972D
:1014400009F03BCFF3E62F16310471F429EE821632
:1014500023E09206A104B10438F06AE287E092E04A
:101460000E946502312C212CC501B4010E94FA159D
:1014700028A939A94AA95BA90E945B1620E030E09F
:1014800040EA50E40E94F51587FF05C08BA19CA19E
:1014900001969CA38BA394E689169104A104B10440
:1014A00008F0EBC0ABE02A1631040CF4E6C0EBA167
:1014B000FCA13A970CF4E1C06EE287E092E00E9452
:1014C000650220E030E040E45FE368A579A58AA5E5
:1014D0009BA50E945B1668A779A78AA79BA720E017
:1014E00030E040E45FE36CA57DA58EA59FA50E943A
:1014F0005B166CA77DA78EA79FA79E01235F3F4F1A
:101500006901FF88CE0101963C01F301619171915F
:10151000819191913F01FF89F33109F4C2C020E02C
:1015200030E040E05EE30E945B164B015C0120E08E
:1015300030E0A9010E94FE1820E030E040E05FE3C7
:1015400087FDAAC0C501B4010E9451170E94A118CD
:101550006E7FD6018D919C91682B792B7C8B6B8B48
:101560002091B1023091B202AE014D5E5F4F6F2DFE
:101570008091B0020E94D004BA8DFB0EE2E0CE0E44
:10158000D11C288D398D2615370509F0BECF8EA1C7
:101590009FA101979FA38EA3892B09F079CE00917B
:1015A000B1021091B20221E042E06AE68091B002FD
:1015B0000E94A8060091B1021091B20221E043E01E
:1015C0006AE68091B0020E94A806E7960FB6F894EA
:1015D000DEBF0FBECDBFDF91CF911F910F91FF9066
:1015E000EF90DF90CF90BF90AF909F908F907F90C3
:1015F0006F905F904F903F902F90089523E12F8B35
:1016000032E03A8FE12C80E2F82EDFCD20E030E0AE
:1016100040E850E40E945B16A88DB98D6D937D93D0
:101620008D939C9313970DCE80E090E0A0E8BFE3EC
:1016300020CEC701B6010E945017D2CE20E030E084
:1016400040E85EE30E945B166B017C0120E030E025
:10165000A9010E94FE1820E030E040E05FE387FD32
:1016600007C0C701B6010E9451170E94A118C1CE40
:10167000C701B6010E945017F8CF61E070E080E02A
:1016800090E00E9487019FEF291A390AA4E62A16E2
:10169000310409F001CE10CFC501B4010E945017EA
:1016A00055CF20E030E040E85EE30E945B164B013E
:1016B0005C0120E030E0A9010E94FE1820E030E04B
:1016C00040E05FE387FD07C0C501B4010E945117E8
:1016D0000E94A11843CFC501B4010E945017F8CF52
:1016E000B6E0BF8BE2E0EA8F4BCDCF93DF93EC0106
:1016F00088819981009711F00E94341A198218820A
:101700001D821C821B821A82DF91CF910895FC01F9
:1017100080819181009711F00C94341A08950F93F1
:101720001F93CF93DF93EC0188819981009759F043
:101730002A813B812617370730F081E0DF91CF9176
:101740001F910F9108958B016F5F7F4F0E94BD1A0B
:10175000009759F0998388831B830A832C813D81EC
:10176000232B59F7FC011082E8CF80E0E7CF0F93DD
:101770001F93CF93DF93EC010C811D810F5F1F4FEF
:10178000B8010E948F0B882391F0288139818C81C8
:101790009D816AE271E0820F931F0E94831B1D836B
:1017A0000C83CE01DF91CF911F910F910895CE014F
:1017B0000E94750BF6CFCF92DF92EF92FF920F93BC
:1017C0001F93CF93DF93CDB7DEB7A1970FB6F894F1
:1017D000DEBF0FBECDBF7C01CB01BA01F701118284
:1017E000108213821282158214828E010F5F1F4FA6
:1017F00022E044E00E94A0136C01009771F0FC010C
:1018000001900020E9F731978F01081B190BB801EF
:10181000C7010E948F0B811112C0C7010E94750B76
:10182000A1960FB6F894DEBF0FBECDBFDF91CF916A
:101830001F910F91FF90EF90DF90CF900895F701E7
:1018400015830483B601808191810E94831BE8CFB8
:10185000EF92FF920F931F93CF93DF93EC01FB0165
:10186000E080F180E114F10411F10481158101158A
:101870001105A9F08C819D81080F191FB801CE01B7
:101880000E948F0B882399F0288139818C819D815A
:10189000B701820F931F0E94831B1D830C83CE010F
:1018A000DF91CF911F910F91FF90EF900895CE019E
:1018B0000E94750BF4CF85ED8093BC0080910302EC
:1018C00090910402A0910502B09106020796A11D15
:1018D000B11D23E0B695A795979587952A95D1F7E1
:1018E0002091BC0024FD03C0109201020895409194
:1018F0000302509104026091050270910602452B8B
:10190000462B472B69F30097A105B10541F02AE268
:101910002A95F1F700C00197A109B109E1CF8091A3
:1019200002020C94D2024F925F926F927F92AF921A
:10193000BF92CF92DF92EF92FF920F931F93CF93BC
:10194000DF93CDB7DEB72C970FB6F894DEBF0FBE8E
:10195000CDBF5C01C982DA82EB82FC820D831E83DB
:101960002F83388749875A876B877C87C984DA84B5
:10197000EB84FC846D817E818F819885A70196011F
:101980000E94D0172B013C0169817A818B819C8157
:10199000A70196010E94D0176B017C0121EE3EE267
:1019A00045E652E4C301B2010E945B16F501608373
:1019B00071838283938321EE3EE245E652E4C701C0
:1019C000B6010E945B169058F50164837583868387
:1019D00097831086118612861386C5012C960FB642
:1019E000F894DEBF0FBECDBFDF91CF911F910F9155
:1019F000FF90EF90DF90CF90BF90AF907F906F906F
:101A00005F904F9008951F920F920FB60F9211247E
:101A10002F933F938F939F93AF93BF9380918D01AB
:101A200090918E01A0918F01B091900130918C0125
:101A300023E0230F2D3758F50196A11DB11D2093EA
:101A40008C0180938D0190938E01A0938F01B093B0
:101A500090018091910190919201A0919301B09198
:101A600094010196A11DB11D809391019093920163
:101A7000A0939301B0939401BF91AF919F918F91E7
:101A80003F912F910F900FBE0F901F90189526E851
:101A9000230F0296A11DB11DD2CF1F920F920FB638
:101AA0000F9211242F933F934F935F936F937F93E4
:101AB0008F939F93AF93BF93EF93FF9387E092E051
:101AC0000E944302FF91EF91BF91AF919F918F913F
:101AD0007F916F915F914F913F912F910F900FBE2A
:101AE0000F901F9018951F920F920FB60F9211240E
:101AF0002F938F939F93EF93FF93E0911702F091B1
:101B000018028081E0911D02F0911E0282FD1BC02F
:101B10009081809120028F5F8F7320912102821724
:101B200041F0E0912002F0E0E95FFD4F958F809356
:101B30002002FF91EF919F918F912F910F900FBEF7
:101B40000F901F9018958081F4CF1F920F920FB6BF
:101B50000F9211242F933F934F935F936F937F9333
:101B60008F939F93AF93BF93EF93FF938091B900AF
:101B7000887F803609F44AC0F0F5883209F4A5C0A0
:101B800018F5803109F499C0B8F4882309F4F5C038
:101B9000883009F492C0FF91EF91BF91AF919F916E
:101BA0008F917F916F915F914F913F912F910F9006
:101BB0000FBE0F901F901895883109F486C08032AF
:101BC00051F78093DF0114C0803409F49BC040F4C6
:101BD0008033B9F38833F9F68093DF0185ECAEC02A
:101BE000803509F483C0883509F494C0883499F6A7
:101BF0000E945B0CD0CF883909F48AC038F5883749
:101C000029F050F4883611F0803729F683E080936C
:101C100001021092730155C0883809F479C08039E7
:101C200019F0803809F0B7CF80917301803208F045
:101C30006FC0E091730181E08E0F809373018091FA
:101C4000BB00F0E0ED5AFE4F80833BC0803B39F093
:101C5000D0F4803A09F477C0883A09F09CCF84E048
:101C6000809301021092520110925101F0E0E0E0E5
:101C700009958091510181110FC081E0809351013C
:101C80001092310109C0803C09F4A8CF883C09F4C6
:101C9000A5CF883B09F07FCFE091520181E08E0F04
:101CA00080935201F0E0EF5CFE4F80818093BB0097
:101CB000909152018091510129C08091DC01809363
:101CC000BB0085EC8093BC0066CF9091DE018091D3
:101CD000DD01981758F5E091DE0181E08E0F8093C9
:101CE000DE01F0E0E554FE4F8081E9CFE091DE01B6
:101CF00081E08E0F8093DE018091BB00F0E0E5541F
:101D0000FE4F80839091DE018091DD019817C8F22B
:101D100085E8D8CFE091DE0181E08E0F8093DE016F
:101D20008091BB00F0E0E554FE4F80838091E0019C
:101D300081115ECF81E08093DB0184EA8093BC0057
:101D40001092010228CF85EC8093BC001092010212
:101D500080917301803230F4E0917301F0E0ED5A2C
:101D6000FE4F10826091730170E083E591E0F0E036
:101D7000E0E00995109273010ECF1092DF0138CF89
:101D8000CF93DF93E7E0F2E01382128288EE93E0D4
:101D9000A0E0B0E084839583A683B7832AE031E096
:101DA0003183208325EC30E03587248724EC30E034
:101DB0003787268720EC30E0318B208B21EC30E018
:101DC000338B228B22EC30E0358B248B26EC30E0F9
:101DD000378B268B118E128E138E148EE4EAF2E06E
:101DE0001382128284839583A683B7838CE191E06A
:101DF00091838083F0E0E0E080819181A281B381D2
:101E0000C9EDD2E088839983AA83BB8384819581BD
:101E1000A681B7818C839D83AE83BF8380859185A6
:101E2000A285B38588879987AA87BB8784E290E0DB
:101E30000E9498199D878C871F861E86E0EBF2E032
:101E400088E680831282118288EF9AE2A0E0B0E0F7
:101E5000818B928BA38BB48BDF91CF910895CF931D
:101E6000DF93CDB7DEB7CE54D1090FB6F894DEBFFD
:101E70000FBECDBF789484B5826084BD84B5816087
:101E800084BD85B5826085BD85B5816085BD809145
:101E90006E00816080936E001092810080918100BD
:101EA00082608093810080918100816080938100B5
:101EB000809180008160809380008091B100846077
:101EC0008093B1008091B00081608093B0008091D8
:101ED0007A00846080937A0080917A008260809397
:101EE0007A0080917A00816080937A0080917A00F4
:101EF000806880937A001092C100E0911702F091FF
:101F0000180282E08083E0911302F09114021082A3
:101F1000E0911502F09116028FEC808310921F025F
:101F2000E0911B02F0911C0286E08083E09119028F
:101F3000F0911A02808180618083E0911902F09112
:101F40001A02808188608083E0911902F0911A0260
:101F5000808180688083E0911902F0911A0280816B
:101F60008F7D8083E090B102F090B20201E023E027
:101F700042E06BE68091B0020E94EB06E090B10275
:101F8000F090B20203E022E044E06CE18091B00204
:101F90000E94EB0680E090E0A0E8BAE38093C502DF
:101FA0009093C602A093C702B093C80280E00E943B
:101FB000440780E090E0AAE7BCE38093C9029093D5
:101FC000CA02A093CB02B093CC0281E00E944407E6
:101FD00080E090E0AAEFBCE38093C9029093CA022C
:101FE000A093CB02B093CC0282E00E94440780E031
:101FF00090E0AAE7BDE38093C9029093CA02A09340
:10200000CB02B093CC0283E00E94440780E090E0D2
:10201000AAEFBDE38093C9029093CA02A093CB02BA
:10202000B093CC020091B1021091B20220E046E0E0
:102030006BE68091B0020E94A80600E010E022E862
:1020400032E44AE959E969E77FE38BE30E947908C2
:1020500000E010E422E933E44AE959E969E77FE363
:1020600083E40E947908E091E502F091E602CF0155
:102070008496108211821282138214821582168233
:10208000178210861186128613863C96E817F90788
:1020900081F71092D9021092DA021092DB021092AC
:1020A000DC021092DD021092DE021092DF0210922A
:1020B000E0021092E1021092E2021092E30210920A
:1020C000E402222423948CE0382E80918401811133
:1020D00036C0CE0149960E945607FD8CBE8CDF8C1F
:1020E000E8A0CE0185960E9456072DA15EA14FA1C2
:1020F00038A5C22E822F952FA42FB32F8D879E87B0
:10210000AF87B88B0F2D8F2D9B2DAD2DBE2D898BBD
:102110009A8BAB8BBC8B1D8A1E8A1F8A188EDE841D
:10212000EF84F8881A892B893C8940E05E896F89A1
:10213000788D88E791E00E94930C209284010E94A0
:1021400062012F966CAF7DAF8EAF9FAF2F97CE0100
:1021500049960E945607E090B102F090B20208EE54
:1021600013E023EB32E046E063E48091B0020E948A
:10217000E8056091B3027091B4027627672776274D
:10218000072E000C880B990B0E94FC1520E030E014
:1021900043E053E40E942F184B015C016091B502AB
:1021A0007091B602762767277627072E000C880BDA
:1021B000990B0E94FC1520E030E043E053E40E94BC
:1021C0002F1827966CAF7DAF8EAF9FAF279760918A
:1021D000B7027091B802762767277627072E000C82
:1021E000880B990B0E94FC1520E030E043E053E49B
:1021F0000E942F182B013C01C98CDA8CEB8CFC8CD3
:102200000D8D1E8D2F8D38A149A15AA16BA17CA1E6
:10221000CE010D960E94930CC0907401D090750170
:10222000E0907601F0907701A3019201C701B60119
:102230000E945B162BE039E548E45FE30E945B16E1
:102240002091800130918101409182015091830160
:102250000E9451172B966CAF7DAF8EAF9FAF2B971F
:10226000A5019401C701B6010E945B162BE039E578
:1022700048E45FE30E945B16209178013091790178
:1022800040917A0150917B010E94511726E636E673
:1022900046E65FE30E945B164B015C012DEC3CECD3
:1022A0004CEC5DE36D857E858F8598890E945B1679
:1022B0009B01AC01C501B4010E9451174B015C01A7
:1022C00027962CAD3DAD4EAD5FAD2797C701B6014A
:1022D0000E945B162BE039E548E45FE30E945B1641
:1022E00020917C0130917D0140917E0150917F01D0
:1022F0000E94511726E636E646E65FE30E945B162B
:102300006B017C012DEC3CEC4CEC5DE369897A8936
:102310008B899C890E945B169B01AC01C701B601A9
:102320000E94511727966CAF7DAF8EAF9FAF279756
:102330002DEC3CEC4CEC5DE36D897E898F89988DAA
:102340000E945B166B017C0126E636E646E65FE3FB
:102350002B966CAD7DAD8EAD9FAD2B970E945B161D
:102360009B01AC01C701B6010E9451176B017C01B2
:102370008092780190927901A0927A01B0927B01CB
:1023800027962CAD3DAD4EAD5FAD279720937C01D8
:1023900030937D0140937E0150937F01C092800174
:1023A000D0928101E0928201F0928301A501940113
:1023B000C501B4010E945B162B013C0127962CAD90
:1023C0003DAD4EAD5FAD2797CA01B9010E945B16C6
:1023D0009B01AC01C301B2010E9451172B013C01CA
:1023E000A7019601C701B6010E945B169B01AC01D3
:1023F000C301B2010E9451170E9411192B013C0127
:1024000020E030E04AEF53E40E94F51587FFE8C072
:1024100020E030E04AEF53ECC301B2010E94FE1805
:1024200018160CF0DDC08CE0E8E7F1E0DE01119653
:1024300001900D928A95E1F72091D9023091DA024C
:102440004091DB025091DC02C501B4010E9451179A
:102450004B015C018092D9029092DA02A092DB02D9
:10246000B092DC022091DD023091DE024091DF0269
:102470005091E00227966CAD7DAD8EAD9FAD279754
:102480000E9451172B013C014092DD025092DE0266
:102490006092DF027092E0022091E1023091E2024C
:1024A0004091E3025091E402C701B6010E94511726
:1024B00027966CAF7DAF8EAF9FAF27976093E102F9
:1024C0007093E2028093E3029093E402C090E702EB
:1024D000D090E802C60163E070E00E946A19389E5D
:1024E0009001399E300D1124E090E502F090E60253
:1024F000E20EF31ED7012D913D914D915C91C501E6
:10250000B4010E9450176093D9027093DA0280934D
:10251000DB029093DC02F7012481358146815781EB
:10252000C301B2010E9450176093DD027093DE0276
:102530008093DF029093E002D70118962D913D9190
:102540004D915C911B9727966CAD7DAD8EAD9FAD87
:1025500027970E9450176093E1027093E2028093E4
:10256000E3029093E402FE013196D701832D01909E
:102570000D928A95E1F7BFEFCB1ADB0AD092E80201
:10258000C092E70220E030E040E450E46091DD02D8
:102590007091DE028091DF029091E0020E942F187C
:1025A0006B017C0120E030E040E450E46091D9020E
:1025B0007091DA028091DB029091DC020E942F1868
:1025C000609378017093790180937A0190937B01F5
:1025D000C0927C01D0927D01E0927E01F0927F0159
:1025E0002B962CAD3DAD4EAD5FAD2B97209380016A
:1025F000309381014093820150938301BA01A90174
:10260000CE0185960E94DB0B40917C0150917D01AB
:1026100060917E0170917F01CE01C1960E94DB0B1B
:10262000409178015091790160917A0170917B011C
:10263000CE01CD960E94DB0B18AE1FAA1AAE19AEC2
:102640001CAE1BAEEDACFEACE114F10479F02396A8
:10265000CEACDFAC2397B601CE01C7960E948F0B9C
:10266000811166C0CE01C7960E94750BCE01C79638
:102670000E94B70BBE016F5C7F4F0E94280C0E9426
:10268000B70BBE016B5D7F4F0E94280CDC011496D6
:102690004D915C9115976D917C9187E092E00E943D
:1026A000C50142E050E06CE271E087E092E00E94F8
:1026B000C501CE01C7960E94870BCE01CD960E9420
:1026C000870BCE01C1960E94870BCE0185960E9492
:1026D000870B65E070E080E090E00E9487010E9437
:1026E00062012F962CAD3DAD4EAD5FAD2F97621BB5
:1026F000730B840B950B0E94FA1520E030E543EC38
:1027000057E40E942F1860937401709375018093B1
:1027100076019093770140E050E0452B09F4D5CC49
:102720000E942F02882309F4CCCC0E940000C9CC5F
:10273000DCAECBAEB7018FA998AD0E94831B96CFBC
:10274000EF920F931F93CF93DF93E80134E047FD9F
:1027500034E1042E000C550B57FF03C051954195F1
:102760005109E32E022F242FAE010E94BE13CE0189
:10277000DF91CF911F910F91EF900895A9E0B0E004
:10278000E4ECF3E10C941F176A01F22EB02E102F27
:10279000FBE3AF2EA01608F41BE31F5F012F27E019
:1027A000AE014F5F5F4F0E941D15BC018981982FBC
:1027B0009970913009F43FC09BE2E1FC04C09E2D6A
:1027C0009170E0FC3AC05E2D5071E82FE87083FFF5
:1027D00046C084E0911101C083E0EF2DE81B8F1506
:1027E00008F0E0E0D6018E2F20E2552351F1992325
:1027F00029F0D6019C93C60101966C0196012D5FCC
:102800003F4FE2FE24C08EE4D6018C9391E41196F2
:102810009C93119712968C93D9018E2F90E281117F
:102820001BC0E20FF32FF11D10828EEF9FEF299650
:10283000ECE00C943B179DE2C6CF90E2C4CF2D9301
:1028400081508111FCCFCE0ED11CE0E0D0CF8EE6BE
:10285000D6018C9391E6DBCF9D938150E0CF482F3A
:10286000447082FF3DC084E0911101C083E08F1568
:1028700010F4EF2DE81BD6018E2F20E2552309F12D
:10288000992329F0D6019C93C60101966C0196010B
:102890002D5F3F4FE2FE1BC089E4D6018C938EE48E
:1028A00011968C93119786E412968C93D9018E2FF2
:1028B00090E2882309F4B5CF9D938150FACF2D93F0
:1028C00081508111FCCFCE0ED11CE0E0D9CF89E63A
:1028D000D6018C938EE611968C93119786E6E4CF01
:1028E0009B0177FF02C030E020E0A1E0B0E0911151
:1028F00002C0B0E0A0E0F9013196AE0FBF1F8B2CF3
:10290000912CBB2009F461C05401EFEFAE1ABE0A4E
:10291000AA0DBB1DFA161B0619F014F04F2D4A1B09
:10292000511188C0E3FC59C07601A42FB0E2A11177
:102930004FC0C40ED11C992309F45BC040E0D601FE
:102940001196F60190836D01552309F448C0012FBB
:10295000060F9A81582F507184FF03C0913309F4F8
:10296000015010160CF047C0093008F008E0EEE204
:10297000FE2E5B01A01AB108850191948194910803
:102980002F3F320729F4D601FC92F60131966F01F0
:102990006217730794F1021713077CF5DB01A21B82
:1029A000B30BAA24A394B12CAC0EBD1EAA0DBB1D63
:1029B00011968C9121503109D601119628153905AF
:1029C000F4F0F60180836D01DBCFB12CA12CA0CFF8
:1029D000F701B1937F01A150AACF9111B0CFD601D9
:1029E000942F50E302C05D9391509111FCCFC40E1F
:1029F000D11C40E0ACCF01E0BACF80E3DBCF62175F
:102A0000730731F4963388F4953311F4552369F044
:102A1000F6018083FD01842F90E2811108C0A40F8C
:102A2000B11D1C9290E080E002CF81E3F1CF919341
:102A30008150F3CF911183CF8ACF283008F027E05F
:102A40003327DA01990F311D87FD916000966105EA
:102A5000710539F432602E5F3D9330E32A95E1F73A
:102A600008959F3F30F080387105610509F03C5FA3
:102A70003C5F3D93913008F08068911DDF93CF93C8
:102A80001F930F93FF92EF92192F987F9695E92F3E
:102A900096959695E90FFF27E051FF4F9927332729
:102AA000EE24FF24A701E70105900894079428F479
:102AB000360FE71EF81E491F511D660F771F881F2E
:102AC000991F0694A1F70590079428F4E70EF81EC5
:102AD000491F561FC11D770F881F991F661F069437
:102AE000A1F70590079428F4F80E491F561FC71F39
:102AF000D11D880F991F661F771F0694A1F70590B7
:102B0000079420F4490F561FC71FD81F990F661F3F
:102B1000771F881F0694A9F784911095177041F0CC
:102B2000D695C79557954795F794E7941A95C1F7A9
:102B3000E6E9F0E0689415901591359165919591CD
:102B400005907FE27395E118F10A430B560BC90B10
:102B5000D009C0F7E10CF11E431F561FC91FD01D3D
:102B60007EF4703311F48A95E6CFE894015030F08A
:102B7000080F0AF40027021708F4202F2395022FCC
:102B80007A3328F079E37D932A95E9F710C07D9395
:102B90002A9589F606949795679537951795179412
:102BA000E118F10A430B560BC90BD00998F0239595
:102BB0007E9173957A3308F070E37C932013B8F715
:102BC0007E9170617D9330F0839571E37D9370E326
:102BD0002A95E1F71124EF90FF900F911F91CF916B
:102BE000DF91992787FD909508950E94371608F484
:102BF00081E00895E89409C097FB3EF49095809594
:102C0000709561957F4F8F4F9F4F9923A9F0F92FB2
:102C100096E9BB279395F695879577956795B79530
:102C2000F111F8CFFAF4BB0F11F460FF1BC06F5F16
:102C30007F4F8F4F9F4F16C0882311F096E911C028
:102C4000772321F09EE8872F762F05C0662371F049
:102C500096E8862F70E060E02AF09A95660F771F5D
:102C6000881FDAF7880F9695879597F90895990F39
:102C70000008550FAA0BE0E8FEEF16161706E80746
:102C8000F907C0F012161306E407F50798F0621B67
:102C9000730B840B950B39F40A2661F0232B242B3C
:102CA000252B21F408950A2609F4A140A6958FEF5B
:102CB000811D811D08950E946E160C94DF160E94DE
:102CC000D11638F00E94D81620F0952311F00C94FC
:102CD000C8160C94CE1611240C9413170E94F016EB
:102CE00070F3959FC1F3950F50E0551F629FF0015F
:102CF000729FBB27F00DB11D639FAA27F00DB11D78
:102D0000AA1F649F6627B00DA11D661F829F222700
:102D1000B00DA11D621F739FB00DA11D621F839F87
:102D2000A00D611D221F749F3327A00D611D231F5D
:102D3000849F600D211D822F762F6A2F11249F57AB
:102D400050409AF0F1F088234AF0EE0FFF1FBB1FAE
:102D5000661F771F881F91505040A9F79E3F51056D
:102D600080F00C94C8160C9413175F3FE4F3983E60
:102D7000D4F3869577956795B795F795E7959F5F17
:102D8000C1F7FE2B880F911D9695879597F90895A9
:102D900097F99F6780E870E060E008959FEF80EC0E
:102DA000089500240A9416161706180609060895B1
:102DB00000240A9412161306140605060895092E17
:102DC0000394000C11F4882352F0BB0F40F4BF2B86
:102DD00011F460FF04C06F5F7F4F8F4F9F4F0895C6
:102DE00057FD9058440F551F59F05F3F71F04795BC
:102DF000880F97FB991F61F09F3F79F087950895A1
:102E0000121613061406551FF2CF4695F1DF08C0BF
:102E1000161617061806991FF1CF869571056105DC
:102E200008940895E894BB2766277727CB0197F984
:102E300008952F923F924F925F926F927F928F925E
:102E40009F92AF92BF92CF92DF92EF92FF920F9339
:102E50001F93CF93DF93CDB7DEB7CA1BDB0B0FB643
:102E6000F894DEBF0FBECDBF09942A883988488800
:102E70005F846E847D848C849B84AA84B984C88496
:102E8000DF80EE80FD800C811B81AA81B981CE0F8D
:102E9000D11D0FB6F894DEBF0FBECDBFED01089572
:102EA0005058BB27AA270E9468170C94DF160E946F
:102EB000D11638F00E94D81620F039F49F3F19F44B
:102EC00026F40C94CE160EF4E095E7FB0C94C8168D
:102ED000E92F0E94F01658F3BA17620773078407A8
:102EE000950720F079F4A6F50C9412170EF4E095EE
:102EF0000B2EBA2FA02D0B01B90190010C01CA01B4
:102F0000A0011124FF27591B99F0593F50F4503E5E
:102F100068F11A16F040A22F232F342F4427585F50
:102F2000F3CF469537952795A795F0405395C9F768
:102F30007EF41F16BA0B620B730B840BBAF0915020
:102F4000A1F0FF0FBB1F661F771F881FC2F70EC0BF
:102F5000BA0F621F731F841F48F487957795679592
:102F6000B795F7959E3F08F0B0CF9395880F08F07E
:102F70009927EE0F9795879508950E94D11660F0D6
:102F800080E891E009F49EEF0E94D81628F040E80E
:102F900051E071F45EEF0CC00C94CE160C94121735
:102FA000E92FE0780E94F01640F3092E052AB1F3CC
:102FB000261737074807590738F00E2E07F8E0257F
:102FC00069F0E025E0640AC0EF6307F8009407FAAF
:102FD000DB01B9019D01DC01CA01AD01EF930E9443
:102FE00046180E94DF160E9400185F91552339F0A1
:102FF0002BED3FE049E450FD49EC0C945117089546
:10300000DF93DD27B92FBF7740E85FE31616170679
:1030100048075B0718F4D92F0E9403199F938F93D9
:103020007F936F930E945119E8E6F0E00E94D71851
:103030000E94DF162F913F914F915F910E946E1673
:10304000DD2351F09058A2EA2AED3FE049EC5FE31E
:10305000D0785D270E946817DF910C94DF160E94DC
:1030600043180C94DF160E94D81658F00E94D1160F
:1030700040F029F45F3F29F00C94C81651110C94CC
:1030800013170C94CE160E94F01668F39923B1F32F
:10309000552391F3951B550BBB27AA27621773077E
:1030A000840738F09F5F5F4F220F331F441FAA1F12
:1030B000A9F335D00E2E3AF0E0E832D091505040CE
:1030C000E695001CCAF72BD0FE2F29D0660F771F7C
:1030D000881FBB1F261737074807AB07B0E809F062
:1030E000BB0B802DBF01FF2793585F4F3AF09E3FE7
:1030F000510578F00C94C8160C9413175F3FE4F355
:10310000983ED4F3869577956795B795F7959F5F29
:10311000C9F7880F911D9695879597F90895E1E075
:10312000660F771F881FBB1F621773078407BA07D4
:1031300020F0621B730B840BBA0BEE1F88F7E0952F
:1031400008950E94A8186894B1110C94131708955B
:103150000E94F81688F09F5798F0B92F9927B75119
:10316000B0F0E1F0660F771F881F991F1AF0BA952B
:10317000C9F714C0B13091F00E941217B1E0089560
:103180000C941217672F782F8827B85F39F0B93F52
:10319000CCF3869577956795B395D9F73EF49095DE
:1031A0008095709561957F4F8F4F9F4F0895DF9366
:1031B000CF931F930F93FF92EF92DF927B018C01CD
:1031C000689406C0DA2EEF010E946E16FE01E894A4
:1031D000A5912591359145915591A6F3EF010E9456
:1031E0006817FE019701A801DA9469F7DF90EF9064
:1031F000FF900F911F91CF91DF9108950E94371694
:1032000008F48FEF08959B01AC0160E070E080E866
:103210009FE30C942F1819F416F40C94CE160C940A
:1032200055190E94F816B8F39923C9F3B6F39F57BE
:10323000550B87FF0E9463190024A0E640EA900125
:1032400080585695979528F4805C660F771F881FE5
:1032500020F026173707480730F4621B730B840BE6
:10326000202931294A2BA69517940794202531252A
:103270004A2758F7660F771F881F20F02617370751
:10328000480730F4620B730B840B200D311D411D78
:10329000A09581F7B901842F9158880F969587954D
:1032A00008959B01AC010C945B169F3F31F0915047
:1032B00020F4879577956795B795880F911D96951A
:1032C000879597F9089591505040660F771F881F92
:1032D000D2F7089597FB072E16F4009407D077FDD8
:1032E00009D00E947E1907FC05D03EF49095819587
:1032F0009F4F0895709561957F4F0895AA1BBB1B42
:1033000051E107C0AA1FBB1FA617B70710F0A61BE5
:10331000B70B881F991F5A95A9F780959095BC0106
:10332000CD010895EE0FFF1F0590F491E02D099453
:103330000F931F93CF93DF938230910510F482E0B7
:1033400090E0E091EB02F091EC0230E020E0B0E0A0
:10335000A0E0309799F42115310509F44AC0281BE3
:10336000390B24303105D8F58A819B8161157105AF
:1033700089F1FB0193838283FE0111C04081518159
:103380000281138148175907E0F04817590799F44B
:10339000109761F012960C93129713961C93329625
:1033A000CF01DF91CF911F910F9108950093EB0210
:1033B0001093EC02F4CF2115310551F04217530759
:1033C00038F0A901DB019A01BD01DF01F801C1CF8D
:1033D000EF01F9CF9093EC028093EB02CDCFFE0189
:1033E000E20FF31F8193919322503109398328838F
:1033F000D7CF2091E9023091EA02232B41F42091AA
:103400000201309103013093EA022093E9022091F6
:103410000001309101012115310541F42DB73EB76E
:103420004091040150910501241B350BE091E90204
:10343000F091EA02E217F307A0F42E1B3F0B2817C6
:10344000390778F0AC014E5F5F4F2417350748F01D
:103450004E0F5F1F5093EA024093E90281939193CC
:103460009FCFF0E0E0E09CCFCF93DF930097E9F0AF
:10347000FC01329713821282A091EB02B091EC0210
:10348000ED0130E020E01097A1F420813181820F1E
:10349000931F2091E9023091EA022817390709F0B9
:1034A00061C0F093EA02E093E902DF91CF910895C1
:1034B000EA01CE17DF07E8F54A815B819E014115DD
:1034C0005105B1F7E901FB83EA8349915991C40F92
:1034D000D51FEC17FD0761F4808191810296840F5E
:1034E000951FE90199838883828193819B838A83D5
:1034F000F0E0E0E012968D919C9113970097B9F55A
:103500002D913C911197CD010296820F931F20912E
:10351000E9023091EA022817390739F6309751F558
:103520001092EC021092EB02B093EA02A093E9022F
:10353000BCCFD383C28340815181840F951FC817AC
:10354000D90761F44E5F5F4F88819981480F591FF9
:10355000518340838A819B81938382832115310526
:1035600009F0B0CFF093EC02E093EB029ECFFD01A7
:10357000DC01C0CF13821282D7CFB0E0A0E0E3EC31
:10358000FAE10C941B178C01009751F4CB010E94B7
:1035900098198C01C801CDB7DEB7E0E10C9437175C
:1035A000FC01E60FF71F9C0122503109E217F307D7
:1035B00008F49DC0D901CD91DC911197C617D707AA
:1035C00098F0C530D10530F3CE01049786179707E0
:1035D00008F3C61BD70B2297C193D1936D937C93AD
:1035E000CF010E94341AD6CF5B01AC1ABD0A4C0140
:1035F0008C0E9D1EA091EB02B091EC02512C412C3F
:10360000F12CE12C109731F58091E9029091EA02BA
:103610008815990509F05CC04616570608F058C091
:103620008091000190910101009741F48DB79EB700
:103630004091040150910501841B950BE817F9078F
:1036400008F055C0F093EA02E093E902F9017183B2
:103650006083A0CF8D919C91119712966C901297D8
:1036600013967C901397A815B90559F56C0142E0A3
:10367000C40ED11CCA14DB0420F1AC014A195B0949
:10368000DA011296159780F062827382518340832B
:10369000D9016D937C93E114F10471F0D701139675
:1036A000FC93EE93129776CF22968C0F9D1FF90113
:1036B00091838083F301EFCFF093EC02E093EB0270
:1036C00069CF4816590608F42C017D01D3019ACF21
:1036D000CB010E9498197C01009749F0AE01B80116
:1036E0000E947A1BC8010E94341A870153CF10E050
:1036F00000E050CFFB01DC0102C001900D9241506F
:103700005040D8F70895FB01DC0101900D92002094
:08371000E1F70895F894FFCFE2
:103718000000ED028000000000006502C501F20112
:10372800B20223020102150200000000B605890555
:10373800E5055F0582056F0560052C000D0A000090
:00000001FF
